{
  "_format": "hh-sol-artifact-1",
  "contractName": "FlashClaim",
  "sourceName": "contracts/FlashClaim.sol",
  "abi": [
    {
      "anonymous": false,
      "inputs": [
        {
          "indexed": false,
          "internalType": "uint8",
          "name": "version",
          "type": "uint8"
        }
      ],
      "name": "Initialized",
      "type": "event"
    },
    {
      "inputs": [],
      "name": "claimETH",
      "outputs": [],
      "stateMutability": "nonpayable",
      "type": "function"
    },
    {
      "inputs": [
        {
          "internalType": "address",
          "name": "_nft",
          "type": "address"
        },
        {
          "internalType": "uint256",
          "name": "_id",
          "type": "uint256"
        }
      ],
      "name": "claimNFT",
      "outputs": [],
      "stateMutability": "nonpayable",
      "type": "function"
    },
    {
      "inputs": [
        {
          "internalType": "address",
          "name": "_token",
          "type": "address"
        }
      ],
      "name": "claimToken",
      "outputs": [],
      "stateMutability": "nonpayable",
      "type": "function"
    },
    {
      "inputs": [],
      "name": "creator",
      "outputs": [
        {
          "internalType": "address",
          "name": "",
          "type": "address"
        }
      ],
      "stateMutability": "view",
      "type": "function"
    },
    {
      "inputs": [
        {
          "internalType": "address",
          "name": "_nft",
          "type": "address"
        },
        {
          "internalType": "uint256",
          "name": "_id",
          "type": "uint256"
        },
        {
          "internalType": "address",
          "name": "_claimContract",
          "type": "address"
        },
        {
          "internalType": "bytes",
          "name": "data",
          "type": "bytes"
        }
      ],
      "name": "executeFlashClaim",
      "outputs": [],
      "stateMutability": "nonpayable",
      "type": "function"
    },
    {
      "inputs": [
        {
          "internalType": "address",
          "name": "_creator",
          "type": "address"
        },
        {
          "internalType": "address",
          "name": "_permissionedWallet",
          "type": "address"
        }
      ],
      "name": "initialize",
      "outputs": [],
      "stateMutability": "nonpayable",
      "type": "function"
    },
    {
      "inputs": [],
      "name": "permissionedWallet",
      "outputs": [
        {
          "internalType": "address",
          "name": "",
          "type": "address"
        }
      ],
      "stateMutability": "view",
      "type": "function"
    }
  ],
  "bytecode": "0x608060405234801561001057600080fd5b50610fce806100206000396000f3fe608060405234801561001057600080fd5b506004361061006d5760003560e01c806302d05d3f1461007257806332f289cf1461009057806333a10cc1146100ac578063485cc955146100c857806367272999146100e4578063c0c522e7146100ee578063c1eca5581461010a575b600080fd5b61007a610128565b6040516100879190610c9c565b60405180910390f35b6100aa60048036038101906100a59190610a6d565b61014e565b005b6100c660048036038101906100c19190610afb565b610319565b005b6100e260048036038101906100dd9190610abf565b61043e565b005b6100ec6105f8565b005b61010860048036038101906101039190610b37565b6106f3565b005b610112610953565b60405161011f9190610c9c565b60405180910390f35b600060029054906101000a900473ffffffffffffffffffffffffffffffffffffffff1681565b600160009054906101000a900473ffffffffffffffffffffffffffffffffffffffff1673ffffffffffffffffffffffffffffffffffffffff163373ffffffffffffffffffffffffffffffffffffffff1614806101f75750600060029054906101000a900473ffffffffffffffffffffffffffffffffffffffff1673ffffffffffffffffffffffffffffffffffffffff163373ffffffffffffffffffffffffffffffffffffffff16145b61020057600080fd5b8073ffffffffffffffffffffffffffffffffffffffff1663a9059cbb338373ffffffffffffffffffffffffffffffffffffffff166370a08231306040518263ffffffff1660e01b81526004016102569190610c9c565b60206040518083038186803b15801561026e57600080fd5b505afa158015610282573d6000803e3d6000fd5b505050506040513d601f19601f820116820180604052508101906102a69190610bdb565b6040518363ffffffff1660e01b81526004016102c3929190610cee565b602060405180830381600087803b1580156102dd57600080fd5b505af11580156102f1573d6000803e3d6000fd5b505050506040513d601f19601f820116820180604052508101906103159190610bb2565b5050565b600160009054906101000a900473ffffffffffffffffffffffffffffffffffffffff1673ffffffffffffffffffffffffffffffffffffffff163373ffffffffffffffffffffffffffffffffffffffff1614806103c25750600060029054906101000a900473ffffffffffffffffffffffffffffffffffffffff1673ffffffffffffffffffffffffffffffffffffffff163373ffffffffffffffffffffffffffffffffffffffff16145b6103cb57600080fd5b8173ffffffffffffffffffffffffffffffffffffffff166323b872dd3033846040518463ffffffff1660e01b815260040161040893929190610cb7565b600060405180830381600087803b15801561042257600080fd5b505af1158015610436573d6000803e3d6000fd5b505050505050565b60008060019054906101000a900460ff1615905080801561046f5750600160008054906101000a900460ff1660ff16105b8061049c575061047e30610979565b15801561049b5750600160008054906101000a900460ff1660ff16145b5b6104db576040517f08c379a00000000000000000000000000000000000000000000000000000000081526004016104d290610d32565b60405180910390fd5b60016000806101000a81548160ff021916908360ff1602179055508015610518576001600060016101000a81548160ff0219169083151502179055505b82600060026101000a81548173ffffffffffffffffffffffffffffffffffffffff021916908373ffffffffffffffffffffffffffffffffffffffff16021790555081600160006101000a81548173ffffffffffffffffffffffffffffffffffffffff021916908373ffffffffffffffffffffffffffffffffffffffff16021790555080156105f35760008060016101000a81548160ff0219169083151502179055507f7f26b83ff96e1f2b6a682f133852f6798a09c465da95921460cefb384740249860016040516105ea9190610d17565b60405180910390a15b505050565b600160009054906101000a900473ffffffffffffffffffffffffffffffffffffffff1673ffffffffffffffffffffffffffffffffffffffff163373ffffffffffffffffffffffffffffffffffffffff1614806106a15750600060029054906101000a900473ffffffffffffffffffffffffffffffffffffffff1673ffffffffffffffffffffffffffffffffffffffff163373ffffffffffffffffffffffffffffffffffffffff16145b6106aa57600080fd5b3373ffffffffffffffffffffffffffffffffffffffff166108fc479081150290604051600060405180830381858888f193505050501580156106f0573d6000803e3d6000fd5b50565b600160009054906101000a900473ffffffffffffffffffffffffffffffffffffffff1673ffffffffffffffffffffffffffffffffffffffff163373ffffffffffffffffffffffffffffffffffffffff161461074d57600080fd5b8373ffffffffffffffffffffffffffffffffffffffff166323b872dd8573ffffffffffffffffffffffffffffffffffffffff16636352211e866040518263ffffffff1660e01b81526004016107a29190610d52565b60206040518083038186803b1580156107ba57600080fd5b505afa1580156107ce573d6000803e3d6000fd5b505050506040513d601f19601f820116820180604052508101906107f29190610a96565b30866040518463ffffffff1660e01b815260040161081293929190610cb7565b600060405180830381600087803b15801561082c57600080fd5b505af1158015610840573d6000803e3d6000fd5b5050505060008273ffffffffffffffffffffffffffffffffffffffff168260405161086b9190610c85565b6000604051808303816000865af19150503d80600081146108a8576040519150601f19603f3d011682016040523d82523d6000602084013e6108ad565b606091505b50509050806108bb57600080fd5b8473ffffffffffffffffffffffffffffffffffffffff166323b872dd30600060029054906101000a900473ffffffffffffffffffffffffffffffffffffffff16876040518463ffffffff1660e01b815260040161091a93929190610cb7565b600060405180830381600087803b15801561093457600080fd5b505af1158015610948573d6000803e3d6000fd5b505050505050505050565b600160009054906101000a900473ffffffffffffffffffffffffffffffffffffffff1681565b6000808273ffffffffffffffffffffffffffffffffffffffff163b119050919050565b60006109af6109aa84610d92565b610d6d565b9050828152602081018484840111156109c757600080fd5b6109d2848285610e51565b509392505050565b6000813590506109e981610f53565b92915050565b6000815190506109fe81610f53565b92915050565b600081519050610a1381610f6a565b92915050565b600082601f830112610a2a57600080fd5b8135610a3a84826020860161099c565b91505092915050565b600081359050610a5281610f81565b92915050565b600081519050610a6781610f81565b92915050565b600060208284031215610a7f57600080fd5b6000610a8d848285016109da565b91505092915050565b600060208284031215610aa857600080fd5b6000610ab6848285016109ef565b91505092915050565b60008060408385031215610ad257600080fd5b6000610ae0858286016109da565b9250506020610af1858286016109da565b9150509250929050565b60008060408385031215610b0e57600080fd5b6000610b1c858286016109da565b9250506020610b2d85828601610a43565b9150509250929050565b60008060008060808587031215610b4d57600080fd5b6000610b5b878288016109da565b9450506020610b6c87828801610a43565b9350506040610b7d878288016109da565b925050606085013567ffffffffffffffff811115610b9a57600080fd5b610ba687828801610a19565b91505092959194509250565b600060208284031215610bc457600080fd5b6000610bd284828501610a04565b91505092915050565b600060208284031215610bed57600080fd5b6000610bfb84828501610a58565b91505092915050565b610c0d81610dea565b82525050565b6000610c1e82610dc3565b610c288185610dce565b9350610c38818560208601610e60565b80840191505092915050565b610c4d81610e3f565b82525050565b6000610c60602e83610dd9565b9150610c6b82610f04565b604082019050919050565b610c7f81610e28565b82525050565b6000610c918284610c13565b915081905092915050565b6000602082019050610cb16000830184610c04565b92915050565b6000606082019050610ccc6000830186610c04565b610cd96020830185610c04565b610ce66040830184610c76565b949350505050565b6000604082019050610d036000830185610c04565b610d106020830184610c76565b9392505050565b6000602082019050610d2c6000830184610c44565b92915050565b60006020820190508181036000830152610d4b81610c53565b9050919050565b6000602082019050610d676000830184610c76565b92915050565b6000610d77610d88565b9050610d838282610e93565b919050565b6000604051905090565b600067ffffffffffffffff821115610dad57610dac610ec4565b5b610db682610ef3565b9050602081019050919050565b600081519050919050565b600081905092915050565b600082825260208201905092915050565b6000610df582610e08565b9050919050565b60008115159050919050565b600073ffffffffffffffffffffffffffffffffffffffff82169050919050565b6000819050919050565b600060ff82169050919050565b6000610e4a82610e32565b9050919050565b82818337600083830152505050565b60005b83811015610e7e578082015181840152602081019050610e63565b83811115610e8d576000848401525b50505050565b610e9c82610ef3565b810181811067ffffffffffffffff82111715610ebb57610eba610ec4565b5b80604052505050565b7f4e487b7100000000000000000000000000000000000000000000000000000000600052604160045260246000fd5b6000601f19601f8301169050919050565b7f496e697469616c697a61626c653a20636f6e747261637420697320616c72656160008201527f647920696e697469616c697a6564000000000000000000000000000000000000602082015250565b610f5c81610dea565b8114610f6757600080fd5b50565b610f7381610dfc565b8114610f7e57600080fd5b50565b610f8a81610e28565b8114610f9557600080fd5b5056fea264697066735822122043887924b3ff4e2dc749dac188c38161fa7fc72fb85cc1f83881a83a918021fd64736f6c63430008040033",
  "linkReferences": {},
  "deployedLinkReferences": {}
}