{
  "_format": "hh-sol-artifact-1",
  "contractName": "MockNft",
  "sourceName": "contracts/MockNft.sol",
  "abi": [
    {
      "inputs": [],
      "stateMutability": "nonpayable",
      "type": "constructor"
    },
    {
      "anonymous": false,
      "inputs": [
        {
          "indexed": true,
          "internalType": "address",
          "name": "owner",
          "type": "address"
        },
        {
          "indexed": true,
          "internalType": "address",
          "name": "approved",
          "type": "address"
        },
        {
          "indexed": true,
          "internalType": "uint256",
          "name": "tokenId",
          "type": "uint256"
        }
      ],
      "name": "Approval",
      "type": "event"
    },
    {
      "anonymous": false,
      "inputs": [
        {
          "indexed": true,
          "internalType": "address",
          "name": "owner",
          "type": "address"
        },
        {
          "indexed": true,
          "internalType": "address",
          "name": "operator",
          "type": "address"
        },
        {
          "indexed": false,
          "internalType": "bool",
          "name": "approved",
          "type": "bool"
        }
      ],
      "name": "ApprovalForAll",
      "type": "event"
    },
    {
      "anonymous": false,
      "inputs": [
        {
          "indexed": true,
          "internalType": "address",
          "name": "from",
          "type": "address"
        },
        {
          "indexed": true,
          "internalType": "address",
          "name": "to",
          "type": "address"
        },
        {
          "indexed": true,
          "internalType": "uint256",
          "name": "tokenId",
          "type": "uint256"
        }
      ],
      "name": "Transfer",
      "type": "event"
    },
    {
      "inputs": [
        {
          "internalType": "address",
          "name": "to",
          "type": "address"
        },
        {
          "internalType": "uint256",
          "name": "tokenId",
          "type": "uint256"
        }
      ],
      "name": "approve",
      "outputs": [],
      "stateMutability": "nonpayable",
      "type": "function"
    },
    {
      "inputs": [
        {
          "internalType": "address",
          "name": "owner",
          "type": "address"
        }
      ],
      "name": "balanceOf",
      "outputs": [
        {
          "internalType": "uint256",
          "name": "",
          "type": "uint256"
        }
      ],
      "stateMutability": "view",
      "type": "function"
    },
    {
      "inputs": [
        {
          "internalType": "uint256",
          "name": "tokenId",
          "type": "uint256"
        }
      ],
      "name": "getApproved",
      "outputs": [
        {
          "internalType": "address",
          "name": "",
          "type": "address"
        }
      ],
      "stateMutability": "view",
      "type": "function"
    },
    {
      "inputs": [],
      "name": "id",
      "outputs": [
        {
          "internalType": "uint256",
          "name": "",
          "type": "uint256"
        }
      ],
      "stateMutability": "view",
      "type": "function"
    },
    {
      "inputs": [
        {
          "internalType": "address",
          "name": "owner",
          "type": "address"
        },
        {
          "internalType": "address",
          "name": "operator",
          "type": "address"
        }
      ],
      "name": "isApprovedForAll",
      "outputs": [
        {
          "internalType": "bool",
          "name": "",
          "type": "bool"
        }
      ],
      "stateMutability": "view",
      "type": "function"
    },
    {
      "inputs": [],
      "name": "mintNew",
      "outputs": [],
      "stateMutability": "nonpayable",
      "type": "function"
    },
    {
      "inputs": [],
      "name": "name",
      "outputs": [
        {
          "internalType": "string",
          "name": "",
          "type": "string"
        }
      ],
      "stateMutability": "view",
      "type": "function"
    },
    {
      "inputs": [
        {
          "internalType": "uint256",
          "name": "tokenId",
          "type": "uint256"
        }
      ],
      "name": "ownerOf",
      "outputs": [
        {
          "internalType": "address",
          "name": "",
          "type": "address"
        }
      ],
      "stateMutability": "view",
      "type": "function"
    },
    {
      "inputs": [
        {
          "internalType": "address",
          "name": "from",
          "type": "address"
        },
        {
          "internalType": "address",
          "name": "to",
          "type": "address"
        },
        {
          "internalType": "uint256",
          "name": "tokenId",
          "type": "uint256"
        }
      ],
      "name": "safeTransferFrom",
      "outputs": [],
      "stateMutability": "nonpayable",
      "type": "function"
    },
    {
      "inputs": [
        {
          "internalType": "address",
          "name": "from",
          "type": "address"
        },
        {
          "internalType": "address",
          "name": "to",
          "type": "address"
        },
        {
          "internalType": "uint256",
          "name": "tokenId",
          "type": "uint256"
        },
        {
          "internalType": "bytes",
          "name": "data",
          "type": "bytes"
        }
      ],
      "name": "safeTransferFrom",
      "outputs": [],
      "stateMutability": "nonpayable",
      "type": "function"
    },
    {
      "inputs": [
        {
          "internalType": "address",
          "name": "operator",
          "type": "address"
        },
        {
          "internalType": "bool",
          "name": "approved",
          "type": "bool"
        }
      ],
      "name": "setApprovalForAll",
      "outputs": [],
      "stateMutability": "nonpayable",
      "type": "function"
    },
    {
      "inputs": [
        {
          "internalType": "bytes4",
          "name": "interfaceId",
          "type": "bytes4"
        }
      ],
      "name": "supportsInterface",
      "outputs": [
        {
          "internalType": "bool",
          "name": "",
          "type": "bool"
        }
      ],
      "stateMutability": "view",
      "type": "function"
    },
    {
      "inputs": [],
      "name": "symbol",
      "outputs": [
        {
          "internalType": "string",
          "name": "",
          "type": "string"
        }
      ],
      "stateMutability": "view",
      "type": "function"
    },
    {
      "inputs": [
        {
          "internalType": "uint256",
          "name": "tokenId",
          "type": "uint256"
        }
      ],
      "name": "tokenURI",
      "outputs": [
        {
          "internalType": "string",
          "name": "",
          "type": "string"
        }
      ],
      "stateMutability": "view",
      "type": "function"
    },
    {
      "inputs": [
        {
          "internalType": "address",
          "name": "from",
          "type": "address"
        },
        {
          "internalType": "address",
          "name": "to",
          "type": "address"
        },
        {
          "internalType": "uint256",
          "name": "tokenId",
          "type": "uint256"
        }
      ],
      "name": "transferFrom",
      "outputs": [],
      "stateMutability": "nonpayable",
      "type": "function"
    }
  ],
  "bytecode": "0x60806040523480156200001157600080fd5b506040518060400160405280600481526020017f54657374000000000000000000000000000000000000000000000000000000008152506040518060400160405280600381526020017f54535400000000000000000000000000000000000000000000000000000000008152508160009080519060200190620000969291906200034a565b508060019080519060200190620000af9291906200034a565b505050620000d4336001600654620000c891906200049d565b620000da60201b60201c565b620005ea565b600073ffffffffffffffffffffffffffffffffffffffff168273ffffffffffffffffffffffffffffffffffffffff1614156200014d576040517f08c379a000000000000000000000000000000000000000000000000000000000815260040162000144906200046a565b60405180910390fd5b6200015e81620002d460201b60201c565b15620001a1576040517f08c379a0000000000000000000000000000000000000000000000000000000008152600401620001989062000448565b60405180910390fd5b620001b5600083836200034060201b60201c565b6001600360008473ffffffffffffffffffffffffffffffffffffffff1673ffffffffffffffffffffffffffffffffffffffff16815260200190815260200160002060008282546200020791906200049d565b92505081905550816002600083815260200190815260200160002060006101000a81548173ffffffffffffffffffffffffffffffffffffffff021916908373ffffffffffffffffffffffffffffffffffffffff160217905550808273ffffffffffffffffffffffffffffffffffffffff16600073ffffffffffffffffffffffffffffffffffffffff167fddf252ad1be2c89b69c2b068fc378daa952ba7f163c4a11628f55a4df523b3ef60405160405180910390a4620002d0600083836200034560201b60201c565b5050565b60008073ffffffffffffffffffffffffffffffffffffffff166002600084815260200190815260200160002060009054906101000a900473ffffffffffffffffffffffffffffffffffffffff1673ffffffffffffffffffffffffffffffffffffffff1614159050919050565b505050565b505050565b828054620003589062000504565b90600052602060002090601f0160209004810192826200037c5760008555620003c8565b82601f106200039757805160ff1916838001178555620003c8565b82800160010185558215620003c8579182015b82811115620003c7578251825591602001919060010190620003aa565b5b509050620003d79190620003db565b5090565b5b80821115620003f6576000816000905550600101620003dc565b5090565b600062000409601c836200048c565b9150620004168262000598565b602082019050919050565b6000620004306020836200048c565b91506200043d82620005c1565b602082019050919050565b600060208201905081810360008301526200046381620003fa565b9050919050565b60006020820190508181036000830152620004858162000421565b9050919050565b600082825260208201905092915050565b6000620004aa82620004fa565b9150620004b783620004fa565b9250827fffffffffffffffffffffffffffffffffffffffffffffffffffffffffffffffff03821115620004ef57620004ee6200053a565b5b828201905092915050565b6000819050919050565b600060028204905060018216806200051d57607f821691505b6020821081141562000534576200053362000569565b5b50919050565b7f4e487b7100000000000000000000000000000000000000000000000000000000600052601160045260246000fd5b7f4e487b7100000000000000000000000000000000000000000000000000000000600052602260045260246000fd5b7f4552433732313a20746f6b656e20616c7265616479206d696e74656400000000600082015250565b7f4552433732313a206d696e7420746f20746865207a65726f2061646472657373600082015250565b61248780620005fa6000396000f3fe608060405234801561001057600080fd5b50600436106100d55760003560e01c806370a082311161008757806370a08231146101dc57806395d89b411461020c5780639d5f01f81461022a578063a22cb46514610234578063af640d0f14610250578063b88d4fde1461026e578063c87b56dd1461028a578063e985e9c5146102ba576100d5565b806301ffc9a7146100da57806306fdde031461010a578063081812fc14610128578063095ea7b31461015857806323b872dd1461017457806342842e0e146101905780636352211e146101ac575b600080fd5b6100f460048036038101906100ef9190611865565b6102ea565b6040516101019190611bbc565b60405180910390f35b6101126103cc565b60405161011f9190611bd7565b60405180910390f35b610142600480360381019061013d91906118b7565b61045e565b60405161014f9190611b55565b60405180910390f35b610172600480360381019061016d9190611829565b6104a4565b005b61018e60048036038101906101899190611723565b6105bc565b005b6101aa60048036038101906101a59190611723565b61061c565b005b6101c660048036038101906101c191906118b7565b61063c565b6040516101d39190611b55565b60405180910390f35b6101f660048036038101906101f191906116be565b6106ee565b6040516102039190611d59565b60405180910390f35b6102146107a6565b6040516102219190611bd7565b60405180910390f35b610232610838565b005b61024e600480360381019061024991906117ed565b61086a565b005b610258610880565b6040516102659190611d59565b60405180910390f35b61028860048036038101906102839190611772565b610886565b005b6102a4600480360381019061029f91906118b7565b6108e8565b6040516102b19190611bd7565b60405180910390f35b6102d460048036038101906102cf91906116e7565b610950565b6040516102e19190611bbc565b60405180910390f35b60007f80ac58cd000000000000000000000000000000000000000000000000000000007bffffffffffffffffffffffffffffffffffffffffffffffffffffffff1916827bffffffffffffffffffffffffffffffffffffffffffffffffffffffff191614806103b557507f5b5e139f000000000000000000000000000000000000000000000000000000007bffffffffffffffffffffffffffffffffffffffffffffffffffffffff1916827bffffffffffffffffffffffffffffffffffffffffffffffffffffffff1916145b806103c557506103c4826109e4565b5b9050919050565b6060600080546103db90611f7e565b80601f016020809104026020016040519081016040528092919081815260200182805461040790611f7e565b80156104545780601f1061042957610100808354040283529160200191610454565b820191906000526020600020905b81548152906001019060200180831161043757829003601f168201915b5050505050905090565b600061046982610a4e565b6004600083815260200190815260200160002060009054906101000a900473ffffffffffffffffffffffffffffffffffffffff169050919050565b60006104af8261063c565b90508073ffffffffffffffffffffffffffffffffffffffff168373ffffffffffffffffffffffffffffffffffffffff161415610520576040517f08c379a000000000000000000000000000000000000000000000000000000000815260040161051790611d19565b60405180910390fd5b8073ffffffffffffffffffffffffffffffffffffffff1661053f610a99565b73ffffffffffffffffffffffffffffffffffffffff16148061056e575061056d81610568610a99565b610950565b5b6105ad576040517f08c379a00000000000000000000000000000000000000000000000000000000081526004016105a490611cb9565b60405180910390fd5b6105b78383610aa1565b505050565b6105cd6105c7610a99565b82610b5a565b61060c576040517f08c379a000000000000000000000000000000000000000000000000000000000815260040161060390611d39565b60405180910390fd5b610617838383610bef565b505050565b61063783838360405180602001604052806000815250610886565b505050565b6000806002600084815260200190815260200160002060009054906101000a900473ffffffffffffffffffffffffffffffffffffffff169050600073ffffffffffffffffffffffffffffffffffffffff168173ffffffffffffffffffffffffffffffffffffffff1614156106e5576040517f08c379a00000000000000000000000000000000000000000000000000000000081526004016106dc90611cf9565b60405180910390fd5b80915050919050565b60008073ffffffffffffffffffffffffffffffffffffffff168273ffffffffffffffffffffffffffffffffffffffff16141561075f576040517f08c379a000000000000000000000000000000000000000000000000000000000815260040161075690611c99565b60405180910390fd5b600360008373ffffffffffffffffffffffffffffffffffffffff1673ffffffffffffffffffffffffffffffffffffffff168152602001908152602001600020549050919050565b6060600180546107b590611f7e565b80601f01602080910402602001604051908101604052809291908181526020018280546107e190611f7e565b801561082e5780601f106108035761010080835404028352916020019161082e565b820191906000526020600020905b81548152906001019060200180831161081157829003601f168201915b5050505050905090565b6006600081548092919061084b90611fe1565b91905055506108683360016006546108639190611e0d565b610e56565b565b61087c610875610a99565b8383611030565b5050565b60065481565b610897610891610a99565b83610b5a565b6108d6576040517f08c379a00000000000000000000000000000000000000000000000000000000081526004016108cd90611d39565b60405180910390fd5b6108e28484848461119d565b50505050565b60606108f382610a4e565b60006108fd6111f9565b9050600081511161091d5760405180602001604052806000815250610948565b8061092784611210565b604051602001610938929190611b31565b6040516020818303038152906040525b915050919050565b6000600560008473ffffffffffffffffffffffffffffffffffffffff1673ffffffffffffffffffffffffffffffffffffffff16815260200190815260200160002060008373ffffffffffffffffffffffffffffffffffffffff1673ffffffffffffffffffffffffffffffffffffffff16815260200190815260200160002060009054906101000a900460ff16905092915050565b60007f01ffc9a7000000000000000000000000000000000000000000000000000000007bffffffffffffffffffffffffffffffffffffffffffffffffffffffff1916827bffffffffffffffffffffffffffffffffffffffffffffffffffffffff1916149050919050565b610a57816113bd565b610a96576040517f08c379a0000000000000000000000000000000000000000000000000000000008152600401610a8d90611cf9565b60405180910390fd5b50565b600033905090565b816004600083815260200190815260200160002060006101000a81548173ffffffffffffffffffffffffffffffffffffffff021916908373ffffffffffffffffffffffffffffffffffffffff160217905550808273ffffffffffffffffffffffffffffffffffffffff16610b148361063c565b73ffffffffffffffffffffffffffffffffffffffff167f8c5be1e5ebec7d5bd14f71427d1e84f3dd0314c0f7b2291e5b200ac8c7c3b92560405160405180910390a45050565b600080610b668361063c565b90508073ffffffffffffffffffffffffffffffffffffffff168473ffffffffffffffffffffffffffffffffffffffff161480610ba85750610ba78185610950565b5b80610be657508373ffffffffffffffffffffffffffffffffffffffff16610bce8461045e565b73ffffffffffffffffffffffffffffffffffffffff16145b91505092915050565b8273ffffffffffffffffffffffffffffffffffffffff16610c0f8261063c565b73ffffffffffffffffffffffffffffffffffffffff1614610c65576040517f08c379a0000000000000000000000000000000000000000000000000000000008152600401610c5c90611c19565b60405180910390fd5b600073ffffffffffffffffffffffffffffffffffffffff168273ffffffffffffffffffffffffffffffffffffffff161415610cd5576040517f08c379a0000000000000000000000000000000000000000000000000000000008152600401610ccc90611c59565b60405180910390fd5b610ce0838383611429565b610ceb600082610aa1565b6001600360008573ffffffffffffffffffffffffffffffffffffffff1673ffffffffffffffffffffffffffffffffffffffff1681526020019081526020016000206000828254610d3b9190611e94565b925050819055506001600360008473ffffffffffffffffffffffffffffffffffffffff1673ffffffffffffffffffffffffffffffffffffffff1681526020019081526020016000206000828254610d929190611e0d565b92505081905550816002600083815260200190815260200160002060006101000a81548173ffffffffffffffffffffffffffffffffffffffff021916908373ffffffffffffffffffffffffffffffffffffffff160217905550808273ffffffffffffffffffffffffffffffffffffffff168473ffffffffffffffffffffffffffffffffffffffff167fddf252ad1be2c89b69c2b068fc378daa952ba7f163c4a11628f55a4df523b3ef60405160405180910390a4610e5183838361142e565b505050565b600073ffffffffffffffffffffffffffffffffffffffff168273ffffffffffffffffffffffffffffffffffffffff161415610ec6576040517f08c379a0000000000000000000000000000000000000000000000000000000008152600401610ebd90611cd9565b60405180910390fd5b610ecf816113bd565b15610f0f576040517f08c379a0000000000000000000000000000000000000000000000000000000008152600401610f0690611c39565b60405180910390fd5b610f1b60008383611429565b6001600360008473ffffffffffffffffffffffffffffffffffffffff1673ffffffffffffffffffffffffffffffffffffffff1681526020019081526020016000206000828254610f6b9190611e0d565b92505081905550816002600083815260200190815260200160002060006101000a81548173ffffffffffffffffffffffffffffffffffffffff021916908373ffffffffffffffffffffffffffffffffffffffff160217905550808273ffffffffffffffffffffffffffffffffffffffff16600073ffffffffffffffffffffffffffffffffffffffff167fddf252ad1be2c89b69c2b068fc378daa952ba7f163c4a11628f55a4df523b3ef60405160405180910390a461102c6000838361142e565b5050565b8173ffffffffffffffffffffffffffffffffffffffff168373ffffffffffffffffffffffffffffffffffffffff16141561109f576040517f08c379a000000000000000000000000000000000000000000000000000000000815260040161109690611c79565b60405180910390fd5b80600560008573ffffffffffffffffffffffffffffffffffffffff1673ffffffffffffffffffffffffffffffffffffffff16815260200190815260200160002060008473ffffffffffffffffffffffffffffffffffffffff1673ffffffffffffffffffffffffffffffffffffffff16815260200190815260200160002060006101000a81548160ff0219169083151502179055508173ffffffffffffffffffffffffffffffffffffffff168373ffffffffffffffffffffffffffffffffffffffff167f17307eab39ab6107e8899845ad3d59bd9653f200f220920489ca2b5937696c31836040516111909190611bbc565b60405180910390a3505050565b6111a8848484610bef565b6111b484848484611433565b6111f3576040517f08c379a00000000000000000000000000000000000000000000000000000000081526004016111ea90611bf9565b60405180910390fd5b50505050565b606060405180602001604052806000815250905090565b60606000821415611258576040518060400160405280600181526020017f300000000000000000000000000000000000000000000000000000000000000081525090506113b8565b600082905060005b6000821461128a57808061127390611fe1565b915050600a826112839190611e63565b9150611260565b60008167ffffffffffffffff8111156112cc577f4e487b7100000000000000000000000000000000000000000000000000000000600052604160045260246000fd5b6040519080825280601f01601f1916602001820160405280156112fe5781602001600182028036833780820191505090505b5090505b600085146113b1576001826113179190611e94565b9150600a85611326919061202a565b60306113329190611e0d565b60f81b81838151811061136e577f4e487b7100000000000000000000000000000000000000000000000000000000600052603260045260246000fd5b60200101907effffffffffffffffffffffffffffffffffffffffffffffffffffffffffffff1916908160001a905350600a856113aa9190611e63565b9450611302565b8093505050505b919050565b60008073ffffffffffffffffffffffffffffffffffffffff166002600084815260200190815260200160002060009054906101000a900473ffffffffffffffffffffffffffffffffffffffff1673ffffffffffffffffffffffffffffffffffffffff1614159050919050565b505050565b505050565b60006114548473ffffffffffffffffffffffffffffffffffffffff166115ca565b156115bd578373ffffffffffffffffffffffffffffffffffffffff1663150b7a0261147d610a99565b8786866040518563ffffffff1660e01b815260040161149f9493929190611b70565b602060405180830381600087803b1580156114b957600080fd5b505af19250505080156114ea57506040513d601f19601f820116820180604052508101906114e7919061188e565b60015b61156d573d806000811461151a576040519150601f19603f3d011682016040523d82523d6000602084013e61151f565b606091505b50600081511415611565576040517f08c379a000000000000000000000000000000000000000000000000000000000815260040161155c90611bf9565b60405180910390fd5b805181602001fd5b63150b7a0260e01b7bffffffffffffffffffffffffffffffffffffffffffffffffffffffff1916817bffffffffffffffffffffffffffffffffffffffffffffffffffffffff1916149150506115c2565b600190505b949350505050565b6000808273ffffffffffffffffffffffffffffffffffffffff163b119050919050565b60006116006115fb84611d99565b611d74565b90508281526020810184848401111561161857600080fd5b611623848285611f3c565b509392505050565b60008135905061163a816123f5565b92915050565b60008135905061164f8161240c565b92915050565b60008135905061166481612423565b92915050565b60008151905061167981612423565b92915050565b600082601f83011261169057600080fd5b81356116a08482602086016115ed565b91505092915050565b6000813590506116b88161243a565b92915050565b6000602082840312156116d057600080fd5b60006116de8482850161162b565b91505092915050565b600080604083850312156116fa57600080fd5b60006117088582860161162b565b92505060206117198582860161162b565b9150509250929050565b60008060006060848603121561173857600080fd5b60006117468682870161162b565b93505060206117578682870161162b565b9250506040611768868287016116a9565b9150509250925092565b6000806000806080858703121561178857600080fd5b60006117968782880161162b565b94505060206117a78782880161162b565b93505060406117b8878288016116a9565b925050606085013567ffffffffffffffff8111156117d557600080fd5b6117e18782880161167f565b91505092959194509250565b6000806040838503121561180057600080fd5b600061180e8582860161162b565b925050602061181f85828601611640565b9150509250929050565b6000806040838503121561183c57600080fd5b600061184a8582860161162b565b925050602061185b858286016116a9565b9150509250929050565b60006020828403121561187757600080fd5b600061188584828501611655565b91505092915050565b6000602082840312156118a057600080fd5b60006118ae8482850161166a565b91505092915050565b6000602082840312156118c957600080fd5b60006118d7848285016116a9565b91505092915050565b6118e981611ec8565b82525050565b6118f881611eda565b82525050565b600061190982611dca565b6119138185611de0565b9350611923818560208601611f4b565b61192c81612117565b840191505092915050565b600061194282611dd5565b61194c8185611df1565b935061195c818560208601611f4b565b61196581612117565b840191505092915050565b600061197b82611dd5565b6119858185611e02565b9350611995818560208601611f4b565b80840191505092915050565b60006119ae603283611df1565b91506119b982612128565b604082019050919050565b60006119d1602583611df1565b91506119dc82612177565b604082019050919050565b60006119f4601c83611df1565b91506119ff826121c6565b602082019050919050565b6000611a17602483611df1565b9150611a22826121ef565b604082019050919050565b6000611a3a601983611df1565b9150611a458261223e565b602082019050919050565b6000611a5d602983611df1565b9150611a6882612267565b604082019050919050565b6000611a80603e83611df1565b9150611a8b826122b6565b604082019050919050565b6000611aa3602083611df1565b9150611aae82612305565b602082019050919050565b6000611ac6601883611df1565b9150611ad18261232e565b602082019050919050565b6000611ae9602183611df1565b9150611af482612357565b604082019050919050565b6000611b0c602e83611df1565b9150611b17826123a6565b604082019050919050565b611b2b81611f32565b82525050565b6000611b3d8285611970565b9150611b498284611970565b91508190509392505050565b6000602082019050611b6a60008301846118e0565b92915050565b6000608082019050611b8560008301876118e0565b611b9260208301866118e0565b611b9f6040830185611b22565b8181036060830152611bb181846118fe565b905095945050505050565b6000602082019050611bd160008301846118ef565b92915050565b60006020820190508181036000830152611bf18184611937565b905092915050565b60006020820190508181036000830152611c12816119a1565b9050919050565b60006020820190508181036000830152611c32816119c4565b9050919050565b60006020820190508181036000830152611c52816119e7565b9050919050565b60006020820190508181036000830152611c7281611a0a565b9050919050565b60006020820190508181036000830152611c9281611a2d565b9050919050565b60006020820190508181036000830152611cb281611a50565b9050919050565b60006020820190508181036000830152611cd281611a73565b9050919050565b60006020820190508181036000830152611cf281611a96565b9050919050565b60006020820190508181036000830152611d1281611ab9565b9050919050565b60006020820190508181036000830152611d3281611adc565b9050919050565b60006020820190508181036000830152611d5281611aff565b9050919050565b6000602082019050611d6e6000830184611b22565b92915050565b6000611d7e611d8f565b9050611d8a8282611fb0565b919050565b6000604051905090565b600067ffffffffffffffff821115611db457611db36120e8565b5b611dbd82612117565b9050602081019050919050565b600081519050919050565b600081519050919050565b600082825260208201905092915050565b600082825260208201905092915050565b600081905092915050565b6000611e1882611f32565b9150611e2383611f32565b9250827fffffffffffffffffffffffffffffffffffffffffffffffffffffffffffffffff03821115611e5857611e5761205b565b5b828201905092915050565b6000611e6e82611f32565b9150611e7983611f32565b925082611e8957611e8861208a565b5b828204905092915050565b6000611e9f82611f32565b9150611eaa83611f32565b925082821015611ebd57611ebc61205b565b5b828203905092915050565b6000611ed382611f12565b9050919050565b60008115159050919050565b60007fffffffff0000000000000000000000000000000000000000000000000000000082169050919050565b600073ffffffffffffffffffffffffffffffffffffffff82169050919050565b6000819050919050565b82818337600083830152505050565b60005b83811015611f69578082015181840152602081019050611f4e565b83811115611f78576000848401525b50505050565b60006002820490506001821680611f9657607f821691505b60208210811415611faa57611fa96120b9565b5b50919050565b611fb982612117565b810181811067ffffffffffffffff82111715611fd857611fd76120e8565b5b80604052505050565b6000611fec82611f32565b91507fffffffffffffffffffffffffffffffffffffffffffffffffffffffffffffffff82141561201f5761201e61205b565b5b600182019050919050565b600061203582611f32565b915061204083611f32565b9250826120505761204f61208a565b5b828206905092915050565b7f4e487b7100000000000000000000000000000000000000000000000000000000600052601160045260246000fd5b7f4e487b7100000000000000000000000000000000000000000000000000000000600052601260045260246000fd5b7f4e487b7100000000000000000000000000000000000000000000000000000000600052602260045260246000fd5b7f4e487b7100000000000000000000000000000000000000000000000000000000600052604160045260246000fd5b6000601f19601f8301169050919050565b7f4552433732313a207472616e7366657220746f206e6f6e20455243373231526560008201527f63656976657220696d706c656d656e7465720000000000000000000000000000602082015250565b7f4552433732313a207472616e736665722066726f6d20696e636f72726563742060008201527f6f776e6572000000000000000000000000000000000000000000000000000000602082015250565b7f4552433732313a20746f6b656e20616c7265616479206d696e74656400000000600082015250565b7f4552433732313a207472616e7366657220746f20746865207a65726f2061646460008201527f7265737300000000000000000000000000000000000000000000000000000000602082015250565b7f4552433732313a20617070726f766520746f2063616c6c657200000000000000600082015250565b7f4552433732313a2061646472657373207a65726f206973206e6f74206120766160008201527f6c6964206f776e65720000000000000000000000000000000000000000000000602082015250565b7f4552433732313a20617070726f76652063616c6c6572206973206e6f7420746f60008201527f6b656e206f776e6572206e6f7220617070726f76656420666f7220616c6c0000602082015250565b7f4552433732313a206d696e7420746f20746865207a65726f2061646472657373600082015250565b7f4552433732313a20696e76616c696420746f6b656e2049440000000000000000600082015250565b7f4552433732313a20617070726f76616c20746f2063757272656e74206f776e6560008201527f7200000000000000000000000000000000000000000000000000000000000000602082015250565b7f4552433732313a2063616c6c6572206973206e6f7420746f6b656e206f776e6560008201527f72206e6f7220617070726f766564000000000000000000000000000000000000602082015250565b6123fe81611ec8565b811461240957600080fd5b50565b61241581611eda565b811461242057600080fd5b50565b61242c81611ee6565b811461243757600080fd5b50565b61244381611f32565b811461244e57600080fd5b5056fea2646970667358221220d0e680131fdb5768b1eddfb37abf0a43e5a90a04edbec593660639fb9cf774f164736f6c63430008040033",
  "linkReferences": {},
  "deployedLinkReferences": {}
}