{
  "_format": "hh-sol-artifact-1",
  "contractName": "MockToken",
  "sourceName": "contracts/MockToken.sol",
  "abi": [
    {
      "inputs": [],
      "stateMutability": "nonpayable",
      "type": "constructor"
    },
    {
      "anonymous": false,
      "inputs": [
        {
          "indexed": true,
          "internalType": "address",
          "name": "owner",
          "type": "address"
        },
        {
          "indexed": true,
          "internalType": "address",
          "name": "spender",
          "type": "address"
        },
        {
          "indexed": false,
          "internalType": "uint256",
          "name": "value",
          "type": "uint256"
        }
      ],
      "name": "Approval",
      "type": "event"
    },
    {
      "anonymous": false,
      "inputs": [
        {
          "indexed": true,
          "internalType": "address",
          "name": "from",
          "type": "address"
        },
        {
          "indexed": true,
          "internalType": "address",
          "name": "to",
          "type": "address"
        },
        {
          "indexed": false,
          "internalType": "uint256",
          "name": "value",
          "type": "uint256"
        }
      ],
      "name": "Transfer",
      "type": "event"
    },
    {
      "inputs": [
        {
          "internalType": "address",
          "name": "owner",
          "type": "address"
        },
        {
          "internalType": "address",
          "name": "spender",
          "type": "address"
        }
      ],
      "name": "allowance",
      "outputs": [
        {
          "internalType": "uint256",
          "name": "",
          "type": "uint256"
        }
      ],
      "stateMutability": "view",
      "type": "function"
    },
    {
      "inputs": [
        {
          "internalType": "address",
          "name": "spender",
          "type": "address"
        },
        {
          "internalType": "uint256",
          "name": "amount",
          "type": "uint256"
        }
      ],
      "name": "approve",
      "outputs": [
        {
          "internalType": "bool",
          "name": "",
          "type": "bool"
        }
      ],
      "stateMutability": "nonpayable",
      "type": "function"
    },
    {
      "inputs": [
        {
          "internalType": "address",
          "name": "account",
          "type": "address"
        }
      ],
      "name": "balanceOf",
      "outputs": [
        {
          "internalType": "uint256",
          "name": "",
          "type": "uint256"
        }
      ],
      "stateMutability": "view",
      "type": "function"
    },
    {
      "inputs": [],
      "name": "decimals",
      "outputs": [
        {
          "internalType": "uint8",
          "name": "",
          "type": "uint8"
        }
      ],
      "stateMutability": "view",
      "type": "function"
    },
    {
      "inputs": [
        {
          "internalType": "address",
          "name": "spender",
          "type": "address"
        },
        {
          "internalType": "uint256",
          "name": "subtractedValue",
          "type": "uint256"
        }
      ],
      "name": "decreaseAllowance",
      "outputs": [
        {
          "internalType": "bool",
          "name": "",
          "type": "bool"
        }
      ],
      "stateMutability": "nonpayable",
      "type": "function"
    },
    {
      "inputs": [],
      "name": "id",
      "outputs": [
        {
          "internalType": "uint256",
          "name": "",
          "type": "uint256"
        }
      ],
      "stateMutability": "view",
      "type": "function"
    },
    {
      "inputs": [
        {
          "internalType": "address",
          "name": "spender",
          "type": "address"
        },
        {
          "internalType": "uint256",
          "name": "addedValue",
          "type": "uint256"
        }
      ],
      "name": "increaseAllowance",
      "outputs": [
        {
          "internalType": "bool",
          "name": "",
          "type": "bool"
        }
      ],
      "stateMutability": "nonpayable",
      "type": "function"
    },
    {
      "inputs": [
        {
          "internalType": "address",
          "name": "_recipient",
          "type": "address"
        },
        {
          "internalType": "uint256",
          "name": "_amount",
          "type": "uint256"
        }
      ],
      "name": "mint",
      "outputs": [],
      "stateMutability": "nonpayable",
      "type": "function"
    },
    {
      "inputs": [],
      "name": "name",
      "outputs": [
        {
          "internalType": "string",
          "name": "",
          "type": "string"
        }
      ],
      "stateMutability": "view",
      "type": "function"
    },
    {
      "inputs": [],
      "name": "symbol",
      "outputs": [
        {
          "internalType": "string",
          "name": "",
          "type": "string"
        }
      ],
      "stateMutability": "view",
      "type": "function"
    },
    {
      "inputs": [],
      "name": "totalSupply",
      "outputs": [
        {
          "internalType": "uint256",
          "name": "",
          "type": "uint256"
        }
      ],
      "stateMutability": "view",
      "type": "function"
    },
    {
      "inputs": [
        {
          "internalType": "address",
          "name": "to",
          "type": "address"
        },
        {
          "internalType": "uint256",
          "name": "amount",
          "type": "uint256"
        }
      ],
      "name": "transfer",
      "outputs": [
        {
          "internalType": "bool",
          "name": "",
          "type": "bool"
        }
      ],
      "stateMutability": "nonpayable",
      "type": "function"
    },
    {
      "inputs": [
        {
          "internalType": "address",
          "name": "from",
          "type": "address"
        },
        {
          "internalType": "address",
          "name": "to",
          "type": "address"
        },
        {
          "internalType": "uint256",
          "name": "amount",
          "type": "uint256"
        }
      ],
      "name": "transferFrom",
      "outputs": [
        {
          "internalType": "bool",
          "name": "",
          "type": "bool"
        }
      ],
      "stateMutability": "nonpayable",
      "type": "function"
    }
  ],
  "bytecode": "0x60806040523480156200001157600080fd5b506040518060400160405280600481526020017f54657374000000000000000000000000000000000000000000000000000000008152506040518060400160405280600381526020017f5453540000000000000000000000000000000000000000000000000000000000815250816003908051906020019062000096929190620000b8565b508060049080519060200190620000af929190620000b8565b505050620001cd565b828054620000c69062000168565b90600052602060002090601f016020900481019282620000ea576000855562000136565b82601f106200010557805160ff191683800117855562000136565b8280016001018555821562000136579182015b828111156200013557825182559160200191906001019062000118565b5b50905062000145919062000149565b5090565b5b80821115620001645760008160009055506001016200014a565b5090565b600060028204905060018216806200018157607f821691505b602082108114156200019857620001976200019e565b5b50919050565b7f4e487b7100000000000000000000000000000000000000000000000000000000600052602260045260246000fd5b61148380620001dd6000396000f3fe608060405234801561001057600080fd5b50600436106100bf5760003560e01c806340c10f191161007c57806340c10f19146101ae57806370a08231146101ca57806395d89b41146101fa578063a457c2d714610218578063a9059cbb14610248578063af640d0f14610278578063dd62ed3e14610296576100bf565b806306fdde03146100c4578063095ea7b3146100e257806318160ddd1461011257806323b872dd14610130578063313ce56714610160578063395093511461017e575b600080fd5b6100cc6102c6565b6040516100d99190610f00565b60405180910390f35b6100fc60048036038101906100f79190610d2b565b610358565b6040516101099190610ee5565b60405180910390f35b61011a61037b565b6040516101279190611022565b60405180910390f35b61014a60048036038101906101459190610cdc565b610385565b6040516101579190610ee5565b60405180910390f35b6101686103b4565b604051610175919061103d565b60405180910390f35b61019860048036038101906101939190610d2b565b6103bd565b6040516101a59190610ee5565b60405180910390f35b6101c860048036038101906101c39190610d2b565b6103f4565b005b6101e460048036038101906101df9190610c77565b610402565b6040516101f19190611022565b60405180910390f35b61020261044a565b60405161020f9190610f00565b60405180910390f35b610232600480360381019061022d9190610d2b565b6104dc565b60405161023f9190610ee5565b60405180910390f35b610262600480360381019061025d9190610d2b565b610553565b60405161026f9190610ee5565b60405180910390f35b610280610576565b60405161028d9190611022565b60405180910390f35b6102b060048036038101906102ab9190610ca0565b61057c565b6040516102bd9190611022565b60405180910390f35b6060600380546102d590611152565b80601f016020809104026020016040519081016040528092919081815260200182805461030190611152565b801561034e5780601f106103235761010080835404028352916020019161034e565b820191906000526020600020905b81548152906001019060200180831161033157829003601f168201915b5050505050905090565b600080610363610603565b905061037081858561060b565b600191505092915050565b6000600254905090565b600080610390610603565b905061039d8582856107d6565b6103a8858585610862565b60019150509392505050565b60006012905090565b6000806103c8610603565b90506103e98185856103da858961057c565b6103e49190611074565b61060b565b600191505092915050565b6103fe8282610ae3565b5050565b60008060008373ffffffffffffffffffffffffffffffffffffffff1673ffffffffffffffffffffffffffffffffffffffff168152602001908152602001600020549050919050565b60606004805461045990611152565b80601f016020809104026020016040519081016040528092919081815260200182805461048590611152565b80156104d25780601f106104a7576101008083540402835291602001916104d2565b820191906000526020600020905b8154815290600101906020018083116104b557829003601f168201915b5050505050905090565b6000806104e7610603565b905060006104f5828661057c565b90508381101561053a576040517f08c379a000000000000000000000000000000000000000000000000000000000815260040161053190610fe2565b60405180910390fd5b610547828686840361060b565b60019250505092915050565b60008061055e610603565b905061056b818585610862565b600191505092915050565b60055481565b6000600160008473ffffffffffffffffffffffffffffffffffffffff1673ffffffffffffffffffffffffffffffffffffffff16815260200190815260200160002060008373ffffffffffffffffffffffffffffffffffffffff1673ffffffffffffffffffffffffffffffffffffffff16815260200190815260200160002054905092915050565b600033905090565b600073ffffffffffffffffffffffffffffffffffffffff168373ffffffffffffffffffffffffffffffffffffffff16141561067b576040517f08c379a000000000000000000000000000000000000000000000000000000000815260040161067290610fc2565b60405180910390fd5b600073ffffffffffffffffffffffffffffffffffffffff168273ffffffffffffffffffffffffffffffffffffffff1614156106eb576040517f08c379a00000000000000000000000000000000000000000000000000000000081526004016106e290610f42565b60405180910390fd5b80600160008573ffffffffffffffffffffffffffffffffffffffff1673ffffffffffffffffffffffffffffffffffffffff16815260200190815260200160002060008473ffffffffffffffffffffffffffffffffffffffff1673ffffffffffffffffffffffffffffffffffffffff168152602001908152602001600020819055508173ffffffffffffffffffffffffffffffffffffffff168373ffffffffffffffffffffffffffffffffffffffff167f8c5be1e5ebec7d5bd14f71427d1e84f3dd0314c0f7b2291e5b200ac8c7c3b925836040516107c99190611022565b60405180910390a3505050565b60006107e2848461057c565b90507fffffffffffffffffffffffffffffffffffffffffffffffffffffffffffffffff811461085c578181101561084e576040517f08c379a000000000000000000000000000000000000000000000000000000000815260040161084590610f62565b60405180910390fd5b61085b848484840361060b565b5b50505050565b600073ffffffffffffffffffffffffffffffffffffffff168373ffffffffffffffffffffffffffffffffffffffff1614156108d2576040517f08c379a00000000000000000000000000000000000000000000000000000000081526004016108c990610fa2565b60405180910390fd5b600073ffffffffffffffffffffffffffffffffffffffff168273ffffffffffffffffffffffffffffffffffffffff161415610942576040517f08c379a000000000000000000000000000000000000000000000000000000000815260040161093990610f22565b60405180910390fd5b61094d838383610c43565b60008060008573ffffffffffffffffffffffffffffffffffffffff1673ffffffffffffffffffffffffffffffffffffffff168152602001908152602001600020549050818110156109d3576040517f08c379a00000000000000000000000000000000000000000000000000000000081526004016109ca90610f82565b60405180910390fd5b8181036000808673ffffffffffffffffffffffffffffffffffffffff1673ffffffffffffffffffffffffffffffffffffffff16815260200190815260200160002081905550816000808573ffffffffffffffffffffffffffffffffffffffff1673ffffffffffffffffffffffffffffffffffffffff1681526020019081526020016000206000828254610a669190611074565b925050819055508273ffffffffffffffffffffffffffffffffffffffff168473ffffffffffffffffffffffffffffffffffffffff167fddf252ad1be2c89b69c2b068fc378daa952ba7f163c4a11628f55a4df523b3ef84604051610aca9190611022565b60405180910390a3610add848484610c48565b50505050565b600073ffffffffffffffffffffffffffffffffffffffff168273ffffffffffffffffffffffffffffffffffffffff161415610b53576040517f08c379a0000000000000000000000000000000000000000000000000000000008152600401610b4a90611002565b60405180910390fd5b610b5f60008383610c43565b8060026000828254610b719190611074565b92505081905550806000808473ffffffffffffffffffffffffffffffffffffffff1673ffffffffffffffffffffffffffffffffffffffff1681526020019081526020016000206000828254610bc69190611074565b925050819055508173ffffffffffffffffffffffffffffffffffffffff16600073ffffffffffffffffffffffffffffffffffffffff167fddf252ad1be2c89b69c2b068fc378daa952ba7f163c4a11628f55a4df523b3ef83604051610c2b9190611022565b60405180910390a3610c3f60008383610c48565b5050565b505050565b505050565b600081359050610c5c8161141f565b92915050565b600081359050610c7181611436565b92915050565b600060208284031215610c8957600080fd5b6000610c9784828501610c4d565b91505092915050565b60008060408385031215610cb357600080fd5b6000610cc185828601610c4d565b9250506020610cd285828601610c4d565b9150509250929050565b600080600060608486031215610cf157600080fd5b6000610cff86828701610c4d565b9350506020610d1086828701610c4d565b9250506040610d2186828701610c62565b9150509250925092565b60008060408385031215610d3e57600080fd5b6000610d4c85828601610c4d565b9250506020610d5d85828601610c62565b9150509250929050565b610d70816110dc565b82525050565b6000610d8182611058565b610d8b8185611063565b9350610d9b81856020860161111f565b610da4816111e2565b840191505092915050565b6000610dbc602383611063565b9150610dc7826111f3565b604082019050919050565b6000610ddf602283611063565b9150610dea82611242565b604082019050919050565b6000610e02601d83611063565b9150610e0d82611291565b602082019050919050565b6000610e25602683611063565b9150610e30826112ba565b604082019050919050565b6000610e48602583611063565b9150610e5382611309565b604082019050919050565b6000610e6b602483611063565b9150610e7682611358565b604082019050919050565b6000610e8e602583611063565b9150610e99826113a7565b604082019050919050565b6000610eb1601f83611063565b9150610ebc826113f6565b602082019050919050565b610ed081611108565b82525050565b610edf81611112565b82525050565b6000602082019050610efa6000830184610d67565b92915050565b60006020820190508181036000830152610f1a8184610d76565b905092915050565b60006020820190508181036000830152610f3b81610daf565b9050919050565b60006020820190508181036000830152610f5b81610dd2565b9050919050565b60006020820190508181036000830152610f7b81610df5565b9050919050565b60006020820190508181036000830152610f9b81610e18565b9050919050565b60006020820190508181036000830152610fbb81610e3b565b9050919050565b60006020820190508181036000830152610fdb81610e5e565b9050919050565b60006020820190508181036000830152610ffb81610e81565b9050919050565b6000602082019050818103600083015261101b81610ea4565b9050919050565b60006020820190506110376000830184610ec7565b92915050565b60006020820190506110526000830184610ed6565b92915050565b600081519050919050565b600082825260208201905092915050565b600061107f82611108565b915061108a83611108565b9250827fffffffffffffffffffffffffffffffffffffffffffffffffffffffffffffffff038211156110bf576110be611184565b5b828201905092915050565b60006110d5826110e8565b9050919050565b60008115159050919050565b600073ffffffffffffffffffffffffffffffffffffffff82169050919050565b6000819050919050565b600060ff82169050919050565b60005b8381101561113d578082015181840152602081019050611122565b8381111561114c576000848401525b50505050565b6000600282049050600182168061116a57607f821691505b6020821081141561117e5761117d6111b3565b5b50919050565b7f4e487b7100000000000000000000000000000000000000000000000000000000600052601160045260246000fd5b7f4e487b7100000000000000000000000000000000000000000000000000000000600052602260045260246000fd5b6000601f19601f8301169050919050565b7f45524332303a207472616e7366657220746f20746865207a65726f206164647260008201527f6573730000000000000000000000000000000000000000000000000000000000602082015250565b7f45524332303a20617070726f766520746f20746865207a65726f20616464726560008201527f7373000000000000000000000000000000000000000000000000000000000000602082015250565b7f45524332303a20696e73756666696369656e7420616c6c6f77616e6365000000600082015250565b7f45524332303a207472616e7366657220616d6f756e742065786365656473206260008201527f616c616e63650000000000000000000000000000000000000000000000000000602082015250565b7f45524332303a207472616e736665722066726f6d20746865207a65726f20616460008201527f6472657373000000000000000000000000000000000000000000000000000000602082015250565b7f45524332303a20617070726f76652066726f6d20746865207a65726f2061646460008201527f7265737300000000000000000000000000000000000000000000000000000000602082015250565b7f45524332303a2064656372656173656420616c6c6f77616e63652062656c6f7760008201527f207a65726f000000000000000000000000000000000000000000000000000000602082015250565b7f45524332303a206d696e7420746f20746865207a65726f206164647265737300600082015250565b611428816110ca565b811461143357600080fd5b50565b61143f81611108565b811461144a57600080fd5b5056fea26469706673582212209a81157a9d2a608902186ca2c5f5e641084ab10fd5431a2d556faa0d3f949d0c64736f6c63430008040033",
  "linkReferences": {},
  "deployedLinkReferences": {}
}