{
  "_format": "hh-sol-artifact-1",
  "contractName": "MockAirdrop",
  "sourceName": "contracts/MockAirdrop.sol",
  "abi": [
    {
      "inputs": [
        {
          "internalType": "address",
          "name": "_nft",
          "type": "address"
        },
        {
          "internalType": "address",
          "name": "_token",
          "type": "address"
        }
      ],
      "stateMutability": "nonpayable",
      "type": "constructor"
    },
    {
      "inputs": [],
      "name": "associatedNft",
      "outputs": [
        {
          "internalType": "address",
          "name": "",
          "type": "address"
        }
      ],
      "stateMutability": "view",
      "type": "function"
    },
    {
      "inputs": [],
      "name": "associatedToken",
      "outputs": [
        {
          "internalType": "address",
          "name": "",
          "type": "address"
        }
      ],
      "stateMutability": "view",
      "type": "function"
    },
    {
      "inputs": [],
      "name": "claimAirdrop",
      "outputs": [],
      "stateMutability": "nonpayable",
      "type": "function"
    },
    {
      "inputs": [],
      "name": "getClaimSelector",
      "outputs": [
        {
          "internalType": "bytes4",
          "name": "",
          "type": "bytes4"
        }
      ],
      "stateMutability": "view",
      "type": "function"
    }
  ],
  "bytecode": "0x608060405234801561001057600080fd5b506040516105dc3803806105dc833981810160405281019061003291906100cf565b816000806101000a81548173ffffffffffffffffffffffffffffffffffffffff021916908373ffffffffffffffffffffffffffffffffffffffff16021790555080600160006101000a81548173ffffffffffffffffffffffffffffffffffffffff021916908373ffffffffffffffffffffffffffffffffffffffff1602179055505050610154565b6000815190506100c98161013d565b92915050565b600080604083850312156100e257600080fd5b60006100f0858286016100ba565b9250506020610101858286016100ba565b9150509250929050565b60006101168261011d565b9050919050565b600073ffffffffffffffffffffffffffffffffffffffff82169050919050565b6101468161010b565b811461015157600080fd5b50565b610479806101636000396000f3fe608060405234801561001057600080fd5b506004361061004c5760003560e01c8063507068e5146100515780635b88349d1461006f5780635ef0869214610079578063b3fc0d7b14610097575b600080fd5b6100596100b5565b6040516100669190610374565b60405180910390f35b6100776100c4565b005b61008161023d565b60405161008e9190610330565b60405180910390f35b61009f610261565b6040516100ac9190610330565b60405180910390f35b6000635b88349d60e01b905090565b60008060009054906101000a900473ffffffffffffffffffffffffffffffffffffffff1673ffffffffffffffffffffffffffffffffffffffff166370a08231336040518263ffffffff1660e01b81526004016101209190610330565b60206040518083038186803b15801561013857600080fd5b505afa15801561014c573d6000803e3d6000fd5b505050506040513d601f19601f8201168201806040525081019061017091906102da565b1161017a57600080fd5b600160009054906101000a900473ffffffffffffffffffffffffffffffffffffffff1673ffffffffffffffffffffffffffffffffffffffff1663a9059cbb3368056bc75e2d631000006040518363ffffffff1660e01b81526004016101e092919061034b565b602060405180830381600087803b1580156101fa57600080fd5b505af115801561020e573d6000803e3d6000fd5b505050506040513d601f19601f8201168201806040525081019061023291906102b1565b61023b57600080fd5b565b60008054906101000a900473ffffffffffffffffffffffffffffffffffffffff1681565b600160009054906101000a900473ffffffffffffffffffffffffffffffffffffffff1681565b60008151905061029681610415565b92915050565b6000815190506102ab8161042c565b92915050565b6000602082840312156102c357600080fd5b60006102d184828501610287565b91505092915050565b6000602082840312156102ec57600080fd5b60006102fa8482850161029c565b91505092915050565b61030c8161038f565b82525050565b61031b816103ad565b82525050565b61032a81610403565b82525050565b60006020820190506103456000830184610303565b92915050565b60006040820190506103606000830185610303565b61036d6020830184610321565b9392505050565b60006020820190506103896000830184610312565b92915050565b600061039a826103d9565b9050919050565b60008115159050919050565b60007fffffffff0000000000000000000000000000000000000000000000000000000082169050919050565b600073ffffffffffffffffffffffffffffffffffffffff82169050919050565b6000819050919050565b600061040e826103f9565b9050919050565b61041e816103a1565b811461042957600080fd5b50565b610435816103f9565b811461044057600080fd5b5056fea26469706673582212209d17a36699823fd1e00538ed215fc725ff7f6ae6d12ae96ea4791cfb1cf368a564736f6c63430008040033",
  "linkReferences": {},
  "deployedLinkReferences": {}
}