{
  "_format": "hh-sol-artifact-1",
  "contractName": "MockAirdrop",
  "sourceName": "contracts/MockAirdrop.sol",
  "abi": [
    {
      "inputs": [
        {
          "internalType": "address",
          "name": "_nft",
          "type": "address"
        },
        {
          "internalType": "address",
          "name": "_token",
          "type": "address"
        }
      ],
      "stateMutability": "nonpayable",
      "type": "constructor"
    },
    {
      "inputs": [],
      "name": "associatedNft",
      "outputs": [
        {
          "internalType": "address",
          "name": "",
          "type": "address"
        }
      ],
      "stateMutability": "view",
      "type": "function"
    },
    {
      "inputs": [],
      "name": "associatedToken",
      "outputs": [
        {
          "internalType": "address",
          "name": "",
          "type": "address"
        }
      ],
      "stateMutability": "view",
      "type": "function"
    },
    {
      "inputs": [],
      "name": "claimAirdrop",
      "outputs": [],
      "stateMutability": "nonpayable",
      "type": "function"
    },
    {
      "inputs": [],
      "name": "getClaimSelector",
      "outputs": [
        {
          "internalType": "bytes",
          "name": "",
          "type": "bytes"
        }
      ],
      "stateMutability": "view",
      "type": "function"
    }
  ],
  "bytecode": "0x608060405234801561001057600080fd5b506040516106b03803806106b0833981810160405281019061003291906100cf565b816000806101000a81548173ffffffffffffffffffffffffffffffffffffffff021916908373ffffffffffffffffffffffffffffffffffffffff16021790555080600160006101000a81548173ffffffffffffffffffffffffffffffffffffffff021916908373ffffffffffffffffffffffffffffffffffffffff1602179055505050610154565b6000815190506100c98161013d565b92915050565b600080604083850312156100e257600080fd5b60006100f0858286016100ba565b9250506020610101858286016100ba565b9150509250929050565b60006101168261011d565b9050919050565b600073ffffffffffffffffffffffffffffffffffffffff82169050919050565b6101468161010b565b811461015157600080fd5b50565b61054d806101636000396000f3fe608060405234801561001057600080fd5b506004361061004c5760003560e01c8063507068e5146100515780635b88349d1461006f5780635ef0869214610079578063b3fc0d7b14610097575b600080fd5b6100596100b5565b604051610066919061040d565b60405180910390f35b610077610133565b005b6100816102ac565b60405161008e91906103c9565b60405180910390f35b61009f6102d0565b6040516100ac91906103c9565b60405180910390f35b60606000635b88349d60e01b9050600081604051602401604051602081830303815290604052907bffffffffffffffffffffffffffffffffffffffffffffffffffffffff19166020820180517bffffffffffffffffffffffffffffffffffffffffffffffffffffffff83818316178352505050509050809250505090565b60008060009054906101000a900473ffffffffffffffffffffffffffffffffffffffff1673ffffffffffffffffffffffffffffffffffffffff166370a08231336040518263ffffffff1660e01b815260040161018f91906103c9565b60206040518083038186803b1580156101a757600080fd5b505afa1580156101bb573d6000803e3d6000fd5b505050506040513d601f19601f820116820180604052508101906101df9190610349565b116101e957600080fd5b600160009054906101000a900473ffffffffffffffffffffffffffffffffffffffff1673ffffffffffffffffffffffffffffffffffffffff1663a9059cbb3368056bc75e2d631000006040518363ffffffff1660e01b815260040161024f9291906103e4565b602060405180830381600087803b15801561026957600080fd5b505af115801561027d573d6000803e3d6000fd5b505050506040513d601f19601f820116820180604052508101906102a19190610320565b6102aa57600080fd5b565b60008054906101000a900473ffffffffffffffffffffffffffffffffffffffff1681565b600160009054906101000a900473ffffffffffffffffffffffffffffffffffffffff1681565b600081519050610305816104e9565b92915050565b60008151905061031a81610500565b92915050565b60006020828403121561033257600080fd5b6000610340848285016102f6565b91505092915050565b60006020828403121561035b57600080fd5b60006103698482850161030b565b91505092915050565b61037b8161044b565b82525050565b600061038c8261042f565b610396818561043a565b93506103a68185602086016104a5565b6103af816104d8565b840191505092915050565b6103c381610493565b82525050565b60006020820190506103de6000830184610372565b92915050565b60006040820190506103f96000830185610372565b61040660208301846103ba565b9392505050565b600060208201905081810360008301526104278184610381565b905092915050565b600081519050919050565b600082825260208201905092915050565b600061045682610469565b9050919050565b60008115159050919050565b600073ffffffffffffffffffffffffffffffffffffffff82169050919050565b6000819050919050565b600061049e82610489565b9050919050565b60005b838110156104c35780820151818401526020810190506104a8565b838111156104d2576000848401525b50505050565b6000601f19601f8301169050919050565b6104f28161045d565b81146104fd57600080fd5b50565b61050981610489565b811461051457600080fd5b5056fea264697066735822122007e13eb7b8ab28d74133f52415730b35ce279de3b57bbd91d7daece26f47949b64736f6c63430008040033",
  "linkReferences": {},
  "deployedLinkReferences": {}
}