{
  "_format": "hh-sol-artifact-1",
  "contractName": "FlashClaimFactory",
  "sourceName": "contracts/FlashClaimFactory.sol",
  "abi": [
    {
      "inputs": [],
      "stateMutability": "nonpayable",
      "type": "constructor"
    },
    {
      "anonymous": false,
      "inputs": [
        {
          "indexed": false,
          "internalType": "address",
          "name": "_addr",
          "type": "address"
        },
        {
          "indexed": false,
          "internalType": "address",
          "name": "_creator",
          "type": "address"
        },
        {
          "indexed": false,
          "internalType": "uint256",
          "name": "nonce",
          "type": "uint256"
        }
      ],
      "name": "FlashClaimCreated",
      "type": "event"
    },
    {
      "inputs": [
        {
          "internalType": "address",
          "name": "",
          "type": "address"
        },
        {
          "internalType": "uint256",
          "name": "",
          "type": "uint256"
        }
      ],
      "name": "claimContract",
      "outputs": [
        {
          "internalType": "address",
          "name": "",
          "type": "address"
        }
      ],
      "stateMutability": "view",
      "type": "function"
    },
    {
      "inputs": [
        {
          "internalType": "address",
          "name": "_wallet",
          "type": "address"
        }
      ],
      "name": "createNewClaim",
      "outputs": [],
      "stateMutability": "nonpayable",
      "type": "function"
    },
    {
      "inputs": [
        {
          "internalType": "address",
          "name": "",
          "type": "address"
        }
      ],
      "name": "poolNonce",
      "outputs": [
        {
          "internalType": "uint256",
          "name": "",
          "type": "uint256"
        }
      ],
      "stateMutability": "view",
      "type": "function"
    }
  ],
  "bytecode": "0x60a060405234801561001057600080fd5b5060405161001d90610075565b604051809103906000f080158015610039573d6000803e3d6000fd5b5073ffffffffffffffffffffffffffffffffffffffff1660808173ffffffffffffffffffffffffffffffffffffffff1660601b81525050610082565b610f59806106f083390190565b60805160601c61065161009f600039600060c901526106516000f3fe608060405234801561001057600080fd5b50600436106100415760003560e01c80635e28295114610046578063b2a05c4214610062578063b48ae27314610092575b600080fd5b610060600480360381019061005b91906103da565b6100c2565b005b61007c600480360381019061007791906103da565b610281565b60405161008991906104e4565b60405180910390f35b6100ac60048036038101906100a79190610403565b610299565b6040516100b99190610480565b60405180910390f35b60006100ed7f00000000000000000000000000000000000000000000000000000000000000006102db565b90508073ffffffffffffffffffffffffffffffffffffffff1663485cc95533846040518363ffffffff1660e01b815260040161012a92919061049b565b600060405180830381600087803b15801561014457600080fd5b505af1158015610158573d6000803e3d6000fd5b5050505080600160003373ffffffffffffffffffffffffffffffffffffffff1673ffffffffffffffffffffffffffffffffffffffff16815260200190815260200160002060008060003373ffffffffffffffffffffffffffffffffffffffff1673ffffffffffffffffffffffffffffffffffffffff16815260200190815260200160002054815260200190815260200160002060006101000a81548173ffffffffffffffffffffffffffffffffffffffff021916908373ffffffffffffffffffffffffffffffffffffffff1602179055506000803373ffffffffffffffffffffffffffffffffffffffff1673ffffffffffffffffffffffffffffffffffffffff16815260200190815260200160002060008154809291906102789061054c565b91905055505050565b60006020528060005260406000206000915090505481565b60016020528160005260406000206020528060005260406000206000915091509054906101000a900473ffffffffffffffffffffffffffffffffffffffff1681565b60006040517f3d602d80600a3d3981f3363d3d373d3d3d363d7300000000000000000000000081528260601b60148201527f5af43d82803e903d91602b57fd5bf3000000000000000000000000000000000060288201526037816000f0915050600073ffffffffffffffffffffffffffffffffffffffff168173ffffffffffffffffffffffffffffffffffffffff1614156103ab576040517f08c379a00000000000000000000000000000000000000000000000000000000081526004016103a2906104c4565b60405180910390fd5b919050565b6000813590506103bf816105ed565b92915050565b6000813590506103d481610604565b92915050565b6000602082840312156103ec57600080fd5b60006103fa848285016103b0565b91505092915050565b6000806040838503121561041657600080fd5b6000610424858286016103b0565b9250506020610435858286016103c5565b9150509250929050565b61044881610510565b82525050565b600061045b6016836104ff565b9150610466826105c4565b602082019050919050565b61047a81610542565b82525050565b6000602082019050610495600083018461043f565b92915050565b60006040820190506104b0600083018561043f565b6104bd602083018461043f565b9392505050565b600060208201905081810360008301526104dd8161044e565b9050919050565b60006020820190506104f96000830184610471565b92915050565b600082825260208201905092915050565b600061051b82610522565b9050919050565b600073ffffffffffffffffffffffffffffffffffffffff82169050919050565b6000819050919050565b600061055782610542565b91507fffffffffffffffffffffffffffffffffffffffffffffffffffffffffffffffff82141561058a57610589610595565b5b600182019050919050565b7f4e487b7100000000000000000000000000000000000000000000000000000000600052601160045260246000fd5b7f455243313136373a20637265617465206661696c656400000000000000000000600082015250565b6105f681610510565b811461060157600080fd5b50565b61060d81610542565b811461061857600080fd5b5056fea2646970667358221220e43fa6b84687cc8766e4dfdd2a3f7c7c113c58ecbbb1299ea75c13424c33e7be64736f6c63430008040033608060405234801561001057600080fd5b50610f39806100206000396000f3fe608060405234801561001057600080fd5b506004361061006d5760003560e01c806302d05d3f1461007257806332f289cf1461009057806333a10cc1146100ac578063435d6dcf146100c8578063485cc955146100e45780636727299914610100578063c1eca5581461010a575b600080fd5b61007a610128565b6040516100879190610c9a565b60405180910390f35b6100aa60048036038101906100a59190610a83565b61014e565b005b6100c660048036038101906100c19190610b11565b610319565b005b6100e260048036038101906100dd9190610b4d565b61043e565b005b6100fe60048036038101906100f99190610ad5565b610707565b005b6101086108c1565b005b6101126109bc565b60405161011f9190610c9a565b60405180910390f35b600060029054906101000a900473ffffffffffffffffffffffffffffffffffffffff1681565b600160009054906101000a900473ffffffffffffffffffffffffffffffffffffffff1673ffffffffffffffffffffffffffffffffffffffff163373ffffffffffffffffffffffffffffffffffffffff1614806101f75750600060029054906101000a900473ffffffffffffffffffffffffffffffffffffffff1673ffffffffffffffffffffffffffffffffffffffff163373ffffffffffffffffffffffffffffffffffffffff16145b61020057600080fd5b8073ffffffffffffffffffffffffffffffffffffffff1663a9059cbb338373ffffffffffffffffffffffffffffffffffffffff166370a08231306040518263ffffffff1660e01b81526004016102569190610c9a565b60206040518083038186803b15801561026e57600080fd5b505afa158015610282573d6000803e3d6000fd5b505050506040513d601f19601f820116820180604052508101906102a69190610bd9565b6040518363ffffffff1660e01b81526004016102c3929190610cec565b602060405180830381600087803b1580156102dd57600080fd5b505af11580156102f1573d6000803e3d6000fd5b505050506040513d601f19601f820116820180604052508101906103159190610bb0565b5050565b600160009054906101000a900473ffffffffffffffffffffffffffffffffffffffff1673ffffffffffffffffffffffffffffffffffffffff163373ffffffffffffffffffffffffffffffffffffffff1614806103c25750600060029054906101000a900473ffffffffffffffffffffffffffffffffffffffff1673ffffffffffffffffffffffffffffffffffffffff163373ffffffffffffffffffffffffffffffffffffffff16145b6103cb57600080fd5b8173ffffffffffffffffffffffffffffffffffffffff166323b872dd3033846040518463ffffffff1660e01b815260040161040893929190610cb5565b600060405180830381600087803b15801561042257600080fd5b505af1158015610436573d6000803e3d6000fd5b505050505050565b600160009054906101000a900473ffffffffffffffffffffffffffffffffffffffff1673ffffffffffffffffffffffffffffffffffffffff163373ffffffffffffffffffffffffffffffffffffffff161461049857600080fd5b8373ffffffffffffffffffffffffffffffffffffffff166323b872dd8573ffffffffffffffffffffffffffffffffffffffff16636352211e866040518263ffffffff1660e01b81526004016104ed9190610d50565b60206040518083038186803b15801561050557600080fd5b505afa158015610519573d6000803e3d6000fd5b505050506040513d601f19601f8201168201806040525081019061053d9190610aac565b30866040518463ffffffff1660e01b815260040161055d93929190610cb5565b600060405180830381600087803b15801561057757600080fd5b505af115801561058b573d6000803e3d6000fd5b50505050600081604051602401604051602081830303815290604052907bffffffffffffffffffffffffffffffffffffffffffffffffffffffff19166020820180517bffffffffffffffffffffffffffffffffffffffffffffffffffffffff8381831617835250505050905060008373ffffffffffffffffffffffffffffffffffffffff168260405161061e9190610c83565b6000604051808303816000865af19150503d806000811461065b576040519150601f19603f3d011682016040523d82523d6000602084013e610660565b606091505b505090508061066e57600080fd5b8573ffffffffffffffffffffffffffffffffffffffff166323b872dd30600060029054906101000a900473ffffffffffffffffffffffffffffffffffffffff16886040518463ffffffff1660e01b81526004016106cd93929190610cb5565b600060405180830381600087803b1580156106e757600080fd5b505af11580156106fb573d6000803e3d6000fd5b50505050505050505050565b60008060019054906101000a900460ff161590508080156107385750600160008054906101000a900460ff1660ff16105b806107655750610747306109e2565b1580156107645750600160008054906101000a900460ff1660ff16145b5b6107a4576040517f08c379a000000000000000000000000000000000000000000000000000000000815260040161079b90610d30565b60405180910390fd5b60016000806101000a81548160ff021916908360ff16021790555080156107e1576001600060016101000a81548160ff0219169083151502179055505b82600060026101000a81548173ffffffffffffffffffffffffffffffffffffffff021916908373ffffffffffffffffffffffffffffffffffffffff16021790555081600160006101000a81548173ffffffffffffffffffffffffffffffffffffffff021916908373ffffffffffffffffffffffffffffffffffffffff16021790555080156108bc5760008060016101000a81548160ff0219169083151502179055507f7f26b83ff96e1f2b6a682f133852f6798a09c465da95921460cefb384740249860016040516108b39190610d15565b60405180910390a15b505050565b600160009054906101000a900473ffffffffffffffffffffffffffffffffffffffff1673ffffffffffffffffffffffffffffffffffffffff163373ffffffffffffffffffffffffffffffffffffffff16148061096a5750600060029054906101000a900473ffffffffffffffffffffffffffffffffffffffff1673ffffffffffffffffffffffffffffffffffffffff163373ffffffffffffffffffffffffffffffffffffffff16145b61097357600080fd5b3373ffffffffffffffffffffffffffffffffffffffff166108fc479081150290604051600060405180830381858888f193505050501580156109b9573d6000803e3d6000fd5b50565b600160009054906101000a900473ffffffffffffffffffffffffffffffffffffffff1681565b6000808273ffffffffffffffffffffffffffffffffffffffff163b119050919050565b600081359050610a1481610ea7565b92915050565b600081519050610a2981610ea7565b92915050565b600081519050610a3e81610ebe565b92915050565b600081359050610a5381610ed5565b92915050565b600081359050610a6881610eec565b92915050565b600081519050610a7d81610eec565b92915050565b600060208284031215610a9557600080fd5b6000610aa384828501610a05565b91505092915050565b600060208284031215610abe57600080fd5b6000610acc84828501610a1a565b91505092915050565b60008060408385031215610ae857600080fd5b6000610af685828601610a05565b9250506020610b0785828601610a05565b9150509250929050565b60008060408385031215610b2457600080fd5b6000610b3285828601610a05565b9250506020610b4385828601610a59565b9150509250929050565b60008060008060808587031215610b6357600080fd5b6000610b7187828801610a05565b9450506020610b8287828801610a59565b9350506040610b9387828801610a05565b9250506060610ba487828801610a44565b91505092959194509250565b600060208284031215610bc257600080fd5b6000610bd084828501610a2f565b91505092915050565b600060208284031215610beb57600080fd5b6000610bf984828501610a6e565b91505092915050565b610c0b81610d92565b82525050565b6000610c1c82610d6b565b610c268185610d76565b9350610c36818560208601610e25565b80840191505092915050565b610c4b81610e13565b82525050565b6000610c5e602e83610d81565b9150610c6982610e58565b604082019050919050565b610c7d81610dfc565b82525050565b6000610c8f8284610c11565b915081905092915050565b6000602082019050610caf6000830184610c02565b92915050565b6000606082019050610cca6000830186610c02565b610cd76020830185610c02565b610ce46040830184610c74565b949350505050565b6000604082019050610d016000830185610c02565b610d0e6020830184610c74565b9392505050565b6000602082019050610d2a6000830184610c42565b92915050565b60006020820190508181036000830152610d4981610c51565b9050919050565b6000602082019050610d656000830184610c74565b92915050565b600081519050919050565b600081905092915050565b600082825260208201905092915050565b6000610d9d82610ddc565b9050919050565b60008115159050919050565b60007fffffffff0000000000000000000000000000000000000000000000000000000082169050919050565b600073ffffffffffffffffffffffffffffffffffffffff82169050919050565b6000819050919050565b600060ff82169050919050565b6000610e1e82610e06565b9050919050565b60005b83811015610e43578082015181840152602081019050610e28565b83811115610e52576000848401525b50505050565b7f496e697469616c697a61626c653a20636f6e747261637420697320616c72656160008201527f647920696e697469616c697a6564000000000000000000000000000000000000602082015250565b610eb081610d92565b8114610ebb57600080fd5b50565b610ec781610da4565b8114610ed257600080fd5b50565b610ede81610db0565b8114610ee957600080fd5b50565b610ef581610dfc565b8114610f0057600080fd5b5056fea2646970667358221220a33735a06b5437486bb42039dfa4e0d666ff402bb58b99cfd11f62322e799e8b64736f6c63430008040033",
  "linkReferences": {},
  "deployedLinkReferences": {}
}